{
  "contractName": "NaivePaymaster",
  "abi": [
    {
      "anonymous": false,
      "inputs": [
        {
          "indexed": true,
          "internalType": "address",
          "name": "previousOwner",
          "type": "address"
        },
        {
          "indexed": true,
          "internalType": "address",
          "name": "newOwner",
          "type": "address"
        }
      ],
      "name": "OwnershipTransferred",
      "type": "event"
    },
    {
      "anonymous": false,
      "inputs": [
        {
          "indexed": false,
          "internalType": "uint256",
          "name": "",
          "type": "uint256"
        }
      ],
      "name": "PostRelayed",
      "type": "event"
    },
    {
      "anonymous": false,
      "inputs": [
        {
          "indexed": false,
          "internalType": "uint256",
          "name": "",
          "type": "uint256"
        }
      ],
      "name": "PreRelayed",
      "type": "event"
    },
    {
      "anonymous": false,
      "inputs": [
        {
          "indexed": false,
          "internalType": "address",
          "name": "target",
          "type": "address"
        }
      ],
      "name": "TargetSet",
      "type": "event"
    },
    {
      "inputs": [],
      "name": "getGasLimits",
      "outputs": [
        {
          "components": [
            {
              "internalType": "uint256",
              "name": "acceptRelayedCallGasLimit",
              "type": "uint256"
            },
            {
              "internalType": "uint256",
              "name": "preRelayedCallGasLimit",
              "type": "uint256"
            },
            {
              "internalType": "uint256",
              "name": "postRelayedCallGasLimit",
              "type": "uint256"
            }
          ],
          "internalType": "struct GSNTypes.GasLimits",
          "name": "limits",
          "type": "tuple"
        }
      ],
      "stateMutability": "view",
      "type": "function",
      "constant": true
    },
    {
      "inputs": [],
      "name": "getHubAddr",
      "outputs": [
        {
          "internalType": "address",
          "name": "",
          "type": "address"
        }
      ],
      "stateMutability": "view",
      "type": "function",
      "constant": true
    },
    {
      "inputs": [],
      "name": "getRelayHubDeposit",
      "outputs": [
        {
          "internalType": "uint256",
          "name": "",
          "type": "uint256"
        }
      ],
      "stateMutability": "view",
      "type": "function",
      "constant": true
    },
    {
      "inputs": [],
      "name": "ourTarget",
      "outputs": [
        {
          "internalType": "address",
          "name": "",
          "type": "address"
        }
      ],
      "stateMutability": "view",
      "type": "function",
      "constant": true
    },
    {
      "inputs": [],
      "name": "owner",
      "outputs": [
        {
          "internalType": "address",
          "name": "",
          "type": "address"
        }
      ],
      "stateMutability": "view",
      "type": "function",
      "constant": true
    },
    {
      "inputs": [],
      "name": "renounceOwnership",
      "outputs": [],
      "stateMutability": "nonpayable",
      "type": "function"
    },
    {
      "inputs": [
        {
          "internalType": "contract IRelayHub",
          "name": "hub",
          "type": "address"
        }
      ],
      "name": "setRelayHub",
      "outputs": [],
      "stateMutability": "nonpayable",
      "type": "function"
    },
    {
      "inputs": [
        {
          "internalType": "address",
          "name": "newOwner",
          "type": "address"
        }
      ],
      "name": "transferOwnership",
      "outputs": [],
      "stateMutability": "nonpayable",
      "type": "function"
    },
    {
      "inputs": [
        {
          "internalType": "uint256",
          "name": "amount",
          "type": "uint256"
        },
        {
          "internalType": "address payable",
          "name": "target",
          "type": "address"
        }
      ],
      "name": "withdrawRelayHubDepositTo",
      "outputs": [],
      "stateMutability": "nonpayable",
      "type": "function"
    },
    {
      "stateMutability": "payable",
      "type": "receive",
      "payable": true
    },
    {
      "inputs": [
        {
          "internalType": "address",
          "name": "target",
          "type": "address"
        }
      ],
      "name": "setTarget",
      "outputs": [],
      "stateMutability": "nonpayable",
      "type": "function"
    },
    {
      "inputs": [
        {
          "components": [
            {
              "internalType": "address",
              "name": "target",
              "type": "address"
            },
            {
              "internalType": "bytes",
              "name": "encodedFunction",
              "type": "bytes"
            },
            {
              "components": [
                {
                  "internalType": "uint256",
                  "name": "gasLimit",
                  "type": "uint256"
                },
                {
                  "internalType": "uint256",
                  "name": "gasPrice",
                  "type": "uint256"
                },
                {
                  "internalType": "uint256",
                  "name": "pctRelayFee",
                  "type": "uint256"
                },
                {
                  "internalType": "uint256",
                  "name": "baseRelayFee",
                  "type": "uint256"
                }
              ],
              "internalType": "struct GSNTypes.GasData",
              "name": "gasData",
              "type": "tuple"
            },
            {
              "components": [
                {
                  "internalType": "address",
                  "name": "senderAddress",
                  "type": "address"
                },
                {
                  "internalType": "uint256",
                  "name": "senderNonce",
                  "type": "uint256"
                },
                {
                  "internalType": "address",
                  "name": "relayWorker",
                  "type": "address"
                },
                {
                  "internalType": "address",
                  "name": "paymaster",
                  "type": "address"
                },
                {
                  "internalType": "address",
                  "name": "forwarder",
                  "type": "address"
                }
              ],
              "internalType": "struct GSNTypes.RelayData",
              "name": "relayData",
              "type": "tuple"
            }
          ],
          "internalType": "struct GSNTypes.RelayRequest",
          "name": "relayRequest",
          "type": "tuple"
        },
        {
          "internalType": "bytes",
          "name": "signature",
          "type": "bytes"
        },
        {
          "internalType": "bytes",
          "name": "approvalData",
          "type": "bytes"
        },
        {
          "internalType": "uint256",
          "name": "maxPossibleGas",
          "type": "uint256"
        }
      ],
      "name": "acceptRelayedCall",
      "outputs": [
        {
          "internalType": "bytes",
          "name": "context",
          "type": "bytes"
        }
      ],
      "stateMutability": "view",
      "type": "function",
      "constant": true
    },
    {
      "inputs": [
        {
          "internalType": "bytes",
          "name": "context",
          "type": "bytes"
        }
      ],
      "name": "preRelayedCall",
      "outputs": [
        {
          "internalType": "bytes32",
          "name": "",
          "type": "bytes32"
        }
      ],
      "stateMutability": "nonpayable",
      "type": "function"
    },
    {
      "inputs": [
        {
          "internalType": "bytes",
          "name": "context",
          "type": "bytes"
        },
        {
          "internalType": "bool",
          "name": "success",
          "type": "bool"
        },
        {
          "internalType": "bytes32",
          "name": "preRetVal",
          "type": "bytes32"
        },
        {
          "internalType": "uint256",
          "name": "gasUse",
          "type": "uint256"
        },
        {
          "components": [
            {
              "internalType": "uint256",
              "name": "gasLimit",
              "type": "uint256"
            },
            {
              "internalType": "uint256",
              "name": "gasPrice",
              "type": "uint256"
            },
            {
              "internalType": "uint256",
              "name": "pctRelayFee",
              "type": "uint256"
            },
            {
              "internalType": "uint256",
              "name": "baseRelayFee",
              "type": "uint256"
            }
          ],
          "internalType": "struct GSNTypes.GasData",
          "name": "gasData",
          "type": "tuple"
        }
      ],
      "name": "postRelayedCall",
      "outputs": [],
      "stateMutability": "nonpayable",
      "type": "function"
    },
    {
      "inputs": [],
      "name": "versionPaymaster",
      "outputs": [
        {
          "internalType": "string",
          "name": "",
          "type": "string"
        }
      ],
      "stateMutability": "view",
      "type": "function",
      "constant": true
    }
  ],
  "bytecode": "0x608060405260006100146100b760201b60201c565b9050806000806101000a81548173ffffffffffffffffffffffffffffffffffffffff021916908373ffffffffffffffffffffffffffffffffffffffff1602179055508073ffffffffffffffffffffffffffffffffffffffff16600073ffffffffffffffffffffffffffffffffffffffff167f8be0079c531659141344cd1fd0a4f28419497f9722a3daafe3b4186f6b6457e060405160405180910390a3506100bf565b600033905090565b6117b3806100ce6000396000f3fe6080604052600436106100e15760003560e01c80637bb052641161007f5780638da5cb5b116100595780638da5cb5b146103c5578063921276ea146103f0578063f2fde38b1461041b578063fbfbd0f21461044457610208565b80637bb052641461033457806380274db71461035d57806380d324f11461039a57610208565b80635ea54eee116100bb5780635ea54eee1461029e578063715018a6146102c957806374e861d6146102e0578063776d1a011461030b57610208565b80632afe31c11461020d5780632d14c4b71461023857806350c74d3a1461026157610208565b3661020857600073ffffffffffffffffffffffffffffffffffffffff16600160009054906101000a900473ffffffffffffffffffffffffffffffffffffffff1673ffffffffffffffffffffffffffffffffffffffff161415610178576040517f08c379a000000000000000000000000000000000000000000000000000000000815260040161016f9061150c565b60405180910390fd5b600160009054906101000a900473ffffffffffffffffffffffffffffffffffffffff1673ffffffffffffffffffffffffffffffffffffffff1663aa67c91934306040518363ffffffff1660e01b81526004016101d49190611472565b6000604051808303818588803b1580156101ed57600080fd5b505af1158015610201573d6000803e3d6000fd5b5050505050005b600080fd5b34801561021957600080fd5b5061022261046d565b60405161022f9190611587565b60405180910390f35b34801561024457600080fd5b5061025f600480360361025a91908101906111c1565b61051f565b005b34801561026d57600080fd5b50610288600480360361028391908101906110bc565b610647565b60405161029591906114a8565b60405180910390f35b3480156102aa57600080fd5b506102b36106e1565b6040516102c0919061156c565b60405180910390f35b3480156102d557600080fd5b506102de610711565b005b3480156102ec57600080fd5b506102f5610866565b6040516103029190611457565b60405180910390f35b34801561031757600080fd5b50610332600480360361032d9190810190610f92565b610890565b005b34801561034057600080fd5b5061035b60048036036103569190810190611093565b6109a1565b005b34801561036957600080fd5b50610384600480360361037f9190810190610fbb565b610a7b565b604051610391919061148d565b60405180910390f35b3480156103a657600080fd5b506103af610b43565b6040516103bc9190611457565b60405180910390f35b3480156103d157600080fd5b506103da610b69565b6040516103e79190611457565b60405180910390f35b3480156103fc57600080fd5b50610405610b92565b60405161041291906114ca565b60405180910390f35b34801561042757600080fd5b50610442600480360361043d9190810190610f92565b610bcf565b005b34801561045057600080fd5b5061046b60048036036104669190810190611000565b610d93565b005b6000600160009054906101000a900473ffffffffffffffffffffffffffffffffffffffff1673ffffffffffffffffffffffffffffffffffffffff166370a08231306040518263ffffffff1660e01b81526004016104ca9190611472565b60206040518083038186803b1580156104e257600080fd5b505afa1580156104f6573d6000803e3d6000fd5b505050506040513d601f19601f8201168201806040525061051a9190810190611198565b905090565b610527610e55565b73ffffffffffffffffffffffffffffffffffffffff166000809054906101000a900473ffffffffffffffffffffffffffffffffffffffff1673ffffffffffffffffffffffffffffffffffffffff16146105b5576040517f08c379a00000000000000000000000000000000000000000000000000000000081526004016105ac9061154c565b60405180910390fd5b600160009054906101000a900473ffffffffffffffffffffffffffffffffffffffff1673ffffffffffffffffffffffffffffffffffffffff1662f714ce83836040518363ffffffff1660e01b81526004016106119291906115a2565b600060405180830381600087803b15801561062b57600080fd5b505af115801561063f573d6000803e3d6000fd5b505050505050565b6060600260009054906101000a900473ffffffffffffffffffffffffffffffffffffffff1673ffffffffffffffffffffffffffffffffffffffff168760000160206106959190810190610f92565b73ffffffffffffffffffffffffffffffffffffffff16146106b557600080fd5b426040516020016106c69190611587565b60405160208183030381529060405290509695505050505050565b6106e9610e5d565b604051806060016040528061c3508152602001620186a081526020016201adb0815250905090565b610719610e55565b73ffffffffffffffffffffffffffffffffffffffff166000809054906101000a900473ffffffffffffffffffffffffffffffffffffffff1673ffffffffffffffffffffffffffffffffffffffff16146107a7576040517f08c379a000000000000000000000000000000000000000000000000000000000815260040161079e9061154c565b60405180910390fd5b600073ffffffffffffffffffffffffffffffffffffffff166000809054906101000a900473ffffffffffffffffffffffffffffffffffffffff1673ffffffffffffffffffffffffffffffffffffffff167f8be0079c531659141344cd1fd0a4f28419497f9722a3daafe3b4186f6b6457e060405160405180910390a360008060006101000a81548173ffffffffffffffffffffffffffffffffffffffff021916908373ffffffffffffffffffffffffffffffffffffffff160217905550565b6000600160009054906101000a900473ffffffffffffffffffffffffffffffffffffffff16905090565b610898610e55565b73ffffffffffffffffffffffffffffffffffffffff166000809054906101000a900473ffffffffffffffffffffffffffffffffffffffff1673ffffffffffffffffffffffffffffffffffffffff1614610926576040517f08c379a000000000000000000000000000000000000000000000000000000000815260040161091d9061154c565b60405180910390fd5b80600260006101000a81548173ffffffffffffffffffffffffffffffffffffffff021916908373ffffffffffffffffffffffffffffffffffffffff1602179055507f3bfb4bbf112628248058745a3c57e35b13369386e474b8e56c552f3063a4a196816040516109969190611457565b60405180910390a150565b6109a9610e55565b73ffffffffffffffffffffffffffffffffffffffff166000809054906101000a900473ffffffffffffffffffffffffffffffffffffffff1673ffffffffffffffffffffffffffffffffffffffff1614610a37576040517f08c379a0000000000000000000000000000000000000000000000000000000008152600401610a2e9061154c565b60405180910390fd5b80600160006101000a81548173ffffffffffffffffffffffffffffffffffffffff021916908373ffffffffffffffffffffffffffffffffffffffff16021790555050565b6000610a85610866565b73ffffffffffffffffffffffffffffffffffffffff163373ffffffffffffffffffffffffffffffffffffffff1614610af2576040517f08c379a0000000000000000000000000000000000000000000000000000000008152600401610ae99061152c565b60405180910390fd5b7f1fab8d24eefec3578055fc7f1c7cce1b10153c6731e0b5ca8147e8916d884b458383610b22919081019061116f565b604051610b2f9190611587565b60405180910390a16000801b905092915050565b600260009054906101000a900473ffffffffffffffffffffffffffffffffffffffff1681565b60008060009054906101000a900473ffffffffffffffffffffffffffffffffffffffff16905090565b60606040518060400160405280600381526020017f312e300000000000000000000000000000000000000000000000000000000000815250905090565b610bd7610e55565b73ffffffffffffffffffffffffffffffffffffffff166000809054906101000a900473ffffffffffffffffffffffffffffffffffffffff1673ffffffffffffffffffffffffffffffffffffffff1614610c65576040517f08c379a0000000000000000000000000000000000000000000000000000000008152600401610c5c9061154c565b60405180910390fd5b600073ffffffffffffffffffffffffffffffffffffffff168173ffffffffffffffffffffffffffffffffffffffff161415610cd5576040517f08c379a0000000000000000000000000000000000000000000000000000000008152600401610ccc906114ec565b60405180910390fd5b8073ffffffffffffffffffffffffffffffffffffffff166000809054906101000a900473ffffffffffffffffffffffffffffffffffffffff1673ffffffffffffffffffffffffffffffffffffffff167f8be0079c531659141344cd1fd0a4f28419497f9722a3daafe3b4186f6b6457e060405160405180910390a3806000806101000a81548173ffffffffffffffffffffffffffffffffffffffff021916908373ffffffffffffffffffffffffffffffffffffffff16021790555050565b610d9b610866565b73ffffffffffffffffffffffffffffffffffffffff163373ffffffffffffffffffffffffffffffffffffffff1614610e08576040517f08c379a0000000000000000000000000000000000000000000000000000000008152600401610dff9061152c565b60405180910390fd5b7f142c6d2c03c5b3fcbb162bc0e230bbaae8c9032eb624a8fd44658e00efa63c908686610e38919081019061116f565b604051610e459190611587565b60405180910390a1505050505050565b600033905090565b60405180606001604052806000815260200160008152602001600081525090565b600081359050610e8d816116f3565b92915050565b600081359050610ea28161170a565b92915050565b600081359050610eb781611721565b92915050565b600081359050610ecc81611738565b92915050565b60008083601f840112610ee457600080fd5b8235905067ffffffffffffffff811115610efd57600080fd5b602083019150836001820283011115610f1557600080fd5b9250929050565b600081359050610f2b8161174f565b92915050565b600060808284031215610f4357600080fd5b81905092915050565b60006101608284031215610f5f57600080fd5b81905092915050565b600081359050610f7781611766565b92915050565b600081519050610f8c81611766565b92915050565b600060208284031215610fa457600080fd5b6000610fb284828501610e7e565b91505092915050565b60008060208385031215610fce57600080fd5b600083013567ffffffffffffffff811115610fe857600080fd5b610ff485828601610ed2565b92509250509250929050565b600080600080600080610100878903121561101a57600080fd5b600087013567ffffffffffffffff81111561103457600080fd5b61104089828a01610ed2565b9650965050602061105389828a01610ea8565b945050604061106489828a01610ebd565b935050606061107589828a01610f68565b925050608061108689828a01610f31565b9150509295509295509295565b6000602082840312156110a557600080fd5b60006110b384828501610f1c565b91505092915050565b600080600080600080608087890312156110d557600080fd5b600087013567ffffffffffffffff8111156110ef57600080fd5b6110fb89828a01610f4c565b965050602087013567ffffffffffffffff81111561111857600080fd5b61112489828a01610ed2565b9550955050604087013567ffffffffffffffff81111561114357600080fd5b61114f89828a01610ed2565b9350935050606061116289828a01610f68565b9150509295509295509295565b60006020828403121561118157600080fd5b600061118f84828501610f68565b91505092915050565b6000602082840312156111aa57600080fd5b60006111b884828501610f7d565b91505092915050565b600080604083850312156111d457600080fd5b60006111e285828601610f68565b92505060206111f385828601610e93565b9150509250929050565b61120681611679565b82525050565b61121581611615565b82525050565b61122481611603565b82525050565b61123381611633565b82525050565b6000611244826115cb565b61124e81856115e1565b935061125e8185602086016116af565b611267816116e2565b840191505092915050565b600061127d826115d6565b61128781856115f2565b93506112978185602086016116af565b6112a0816116e2565b840191505092915050565b60006112b86026836115f2565b91507f4f776e61626c653a206e6577206f776e657220697320746865207a65726f206160008301527f64647265737300000000000000000000000000000000000000000000000000006020830152604082019050919050565b600061131e6019836115f2565b91507f72656c6179206875622061646472657373206e6f7420736574000000000000006000830152602082019050919050565b600061135e6027836115f2565b91507f46756e6374696f6e2063616e206f6e6c792062652063616c6c6564206279205260008301527f656c6179487562000000000000000000000000000000000000000000000000006020830152604082019050919050565b60006113c46020836115f2565b91507f4f776e61626c653a2063616c6c6572206973206e6f7420746865206f776e65726000830152602082019050919050565b60608201600082015161140d6000850182611439565b5060208201516114206020850182611439565b5060408201516114336040850182611439565b50505050565b6114428161166f565b82525050565b6114518161166f565b82525050565b600060208201905061146c600083018461121b565b92915050565b600060208201905061148760008301846111fd565b92915050565b60006020820190506114a2600083018461122a565b92915050565b600060208201905081810360008301526114c28184611239565b905092915050565b600060208201905081810360008301526114e48184611272565b905092915050565b60006020820190508181036000830152611505816112ab565b9050919050565b6000602082019050818103600083015261152581611311565b9050919050565b6000602082019050818103600083015261154581611351565b9050919050565b60006020820190508181036000830152611565816113b7565b9050919050565b600060608201905061158160008301846113f7565b92915050565b600060208201905061159c6000830184611448565b92915050565b60006040820190506115b76000830185611448565b6115c4602083018461120c565b9392505050565b600081519050919050565b600081519050919050565b600082825260208201905092915050565b600082825260208201905092915050565b600061160e8261164f565b9050919050565b60006116208261164f565b9050919050565b60008115159050919050565b6000819050919050565b600061164882611603565b9050919050565b600073ffffffffffffffffffffffffffffffffffffffff82169050919050565b6000819050919050565b60006116848261168b565b9050919050565b60006116968261169d565b9050919050565b60006116a88261164f565b9050919050565b60005b838110156116cd5780820151818401526020810190506116b2565b838111156116dc576000848401525b50505050565b6000601f19601f8301169050919050565b6116fc81611603565b811461170757600080fd5b50565b61171381611615565b811461171e57600080fd5b50565b61172a81611627565b811461173557600080fd5b50565b61174181611633565b811461174c57600080fd5b50565b6117588161163d565b811461176357600080fd5b50565b61176f8161166f565b811461177a57600080fd5b5056fea2646970667358221220e51f584ccab3218ed466988bf11ef1b31dbbca4482072403057a325c3ac6e99164736f6c63430006020033",
  "source": "pragma solidity ^0.6.2;\npragma experimental ABIEncoderV2;\n\n// SPDX-License-Identifier: MIT OR Apache-2.0\n\nimport \"../node_modules/@opengsn/gsn/contracts/BasePaymaster.sol\";\n\ncontract NaivePaymaster is BasePaymaster {\n\taddress public ourTarget;   // The target contract we are willing to pay for\n\n\t// allow the owner to set ourTarget\n\tevent TargetSet(address target);\n\tfunction setTarget(address target) external onlyOwner {\n\t\tourTarget = target;\n\t\temit TargetSet(target);\n\t}\n\n\t// GNSTypes.RelayRequest is defined in GNSTypes.sol.\n\t// The relevant fields for us are:\n\t// target - the address of the target contract\n\t// encodedFunction - the called function's name and parameters\n\t// relayData.senderAddress - the sender's address\n\tfunction acceptRelayedCall(\n\t\tGSNTypes.RelayRequest calldata relayRequest,\n\t\tbytes calldata signature,\n\t\tbytes calldata approvalData,\n\t\tuint256 maxPossibleGas\n\t) external view override returns (bytes memory context) {\n\t\t(signature, approvalData, maxPossibleGas);  // avoid a warning\n\n\t\trequire(relayRequest.target == ourTarget);\n\n\t\t// If we got here, we're successful. Return the time\n\t\t// to be able to match PreRelayed and PostRelayed events\n\t\treturn abi.encode(now);\n\t}\n\n\tevent PreRelayed(uint);\n\tevent PostRelayed(uint);\n\n\tfunction preRelayedCall(\n\t\tbytes calldata context\n\t) external relayHubOnly override returns(bytes32) {\n\t\temit PreRelayed(abi.decode(context, (uint)));\n\t\treturn bytes32(0);\n\t}\n\n\tfunction postRelayedCall(\n\t\tbytes calldata context,\n\t\tbool success,\n\t\tbytes32 preRetVal,\n\t\tuint256 gasUse,\n\t\tGSNTypes.GasData calldata gasData\n\t) external relayHubOnly override {\n\t\t(success, preRetVal, gasUse, gasData);\n\t\temit PostRelayed(abi.decode(context, (uint)));\n\n\t}\n\n        function versionPaymaster() external virtual view \n\toverride returns (string memory) {\n                return \"1.0\";\n        }\n\n} \n",
  "sourcePath": "/home/null/Desktop/Alto 2/contracts/Paymaster.sol",
  "compiler": {
    "name": "solc",
    "version": "0.6.2+commit.bacdbe57.Emscripten.clang"
  },
  "schemaVersion": "3.2.0",
  "updatedAt": "2020-07-04T01:17:05.857Z",
  "networkType": "ethereum",
  "devdoc": {
    "methods": {
      "owner()": {
        "details": "Returns the address of the current owner."
      },
      "renounceOwnership()": {
        "details": "Leaves the contract without owner. It will not be possible to call `onlyOwner` functions anymore. Can only be called by the current owner.     * NOTE: Renouncing ownership will leave the contract without an owner, thereby removing any functionality that is only available to the owner."
      },
      "transferOwnership(address)": {
        "details": "Transfers ownership of the contract to a new account (`newOwner`). Can only be called by the current owner."
      }
    }
  },
  "userdoc": {
    "methods": {
      "getRelayHubDeposit()": {
        "notice": "check current deposit on relay hub."
      },
      "withdrawRelayHubDepositTo(uint256,address)": {
        "notice": "withdraw deposit from relayHub"
      }
    }
  }
}