{
  "contractName": "TrackRewarder",
  "abi": [
    {
      "inputs": [
        {
          "internalType": "contract IERC20",
          "name": "token",
          "type": "address"
        },
        {
          "internalType": "address",
          "name": "_forwarder",
          "type": "address"
        }
      ],
      "stateMutability": "nonpayable",
      "type": "constructor"
    },
    {
      "anonymous": false,
      "inputs": [
        {
          "indexed": true,
          "internalType": "address",
          "name": "beneficiary",
          "type": "address"
        },
        {
          "indexed": false,
          "internalType": "uint256",
          "name": "amountPayed",
          "type": "uint256"
        }
      ],
      "name": "payed",
      "type": "event"
    },
    {
      "anonymous": false,
      "inputs": [
        {
          "indexed": true,
          "internalType": "address",
          "name": "uploader",
          "type": "address"
        },
        {
          "indexed": false,
          "internalType": "bytes32",
          "name": "songMeta",
          "type": "bytes32"
        }
      ],
      "name": "trackAdded",
      "type": "event"
    },
    {
      "inputs": [
        {
          "internalType": "address",
          "name": "forwarder",
          "type": "address"
        }
      ],
      "name": "isTrustedForwarder",
      "outputs": [
        {
          "internalType": "bool",
          "name": "",
          "type": "bool"
        }
      ],
      "stateMutability": "view",
      "type": "function",
      "constant": true
    },
    {
      "inputs": [
        {
          "internalType": "uint256",
          "name": "",
          "type": "uint256"
        }
      ],
      "name": "metadatas",
      "outputs": [
        {
          "internalType": "bytes32",
          "name": "",
          "type": "bytes32"
        }
      ],
      "stateMutability": "view",
      "type": "function",
      "constant": true
    },
    {
      "inputs": [
        {
          "internalType": "uint256",
          "name": "",
          "type": "uint256"
        }
      ],
      "name": "uploaders",
      "outputs": [
        {
          "internalType": "address",
          "name": "",
          "type": "address"
        }
      ],
      "stateMutability": "view",
      "type": "function",
      "constant": true
    },
    {
      "inputs": [
        {
          "internalType": "address",
          "name": "uploader",
          "type": "address"
        }
      ],
      "name": "addTrack",
      "outputs": [
        {
          "internalType": "bytes32",
          "name": "meta",
          "type": "bytes32"
        }
      ],
      "stateMutability": "nonpayable",
      "type": "function"
    },
    {
      "inputs": [],
      "name": "checkBal",
      "outputs": [
        {
          "internalType": "uint256",
          "name": "",
          "type": "uint256"
        }
      ],
      "stateMutability": "view",
      "type": "function",
      "constant": true
    },
    {
      "inputs": [
        {
          "internalType": "address",
          "name": "tokenOwner",
          "type": "address"
        }
      ],
      "name": "remAllowance",
      "outputs": [
        {
          "internalType": "uint256",
          "name": "",
          "type": "uint256"
        }
      ],
      "stateMutability": "view",
      "type": "function",
      "constant": true
    },
    {
      "inputs": [
        {
          "internalType": "address",
          "name": "_to",
          "type": "address"
        },
        {
          "internalType": "uint256",
          "name": "amount",
          "type": "uint256"
        }
      ],
      "name": "pay",
      "outputs": [
        {
          "internalType": "uint256",
          "name": "",
          "type": "uint256"
        }
      ],
      "stateMutability": "nonpayable",
      "type": "function"
    },
    {
      "inputs": [
        {
          "internalType": "uint256",
          "name": "votes",
          "type": "uint256"
        },
        {
          "internalType": "address",
          "name": "_address",
          "type": "address"
        }
      ],
      "name": "uploadVoteResult",
      "outputs": [],
      "stateMutability": "nonpayable",
      "type": "function"
    },
    {
      "inputs": [],
      "name": "versionRecipient",
      "outputs": [
        {
          "internalType": "string",
          "name": "",
          "type": "string"
        }
      ],
      "stateMutability": "view",
      "type": "function",
      "constant": true
    },
    {
      "inputs": [],
      "name": "getTrustedForwarder",
      "outputs": [
        {
          "internalType": "address",
          "name": "",
          "type": "address"
        }
      ],
      "stateMutability": "view",
      "type": "function",
      "constant": true
    }
  ],
  "bytecode": "0x60806040523480156200001157600080fd5b506040516200138038038062001380833981810160405262000037919081019062000330565b620000476200011060201b60201c565b600260006101000a81548173ffffffffffffffffffffffffffffffffffffffff021916908373ffffffffffffffffffffffffffffffffffffffff16021790555081600160006101000a81548173ffffffffffffffffffffffffffffffffffffffff021916908373ffffffffffffffffffffffffffffffffffffffff160217905550806000806101000a81548173ffffffffffffffffffffffffffffffffffffffff021916908373ffffffffffffffffffffffffffffffffffffffff16021790555050506200048d565b600060186000369050101580156200013557506200013433620001ad60201b60201c565b5b15620001a6576200019e6000368080601f016020809104026020016040519081016040528093929190818152602001838380828437600081840152601f19601f8201169050808301925050505050505060146000369050036200020660201b620008931760201c565b9050620001aa565b3390505b90565b60008060009054906101000a900473ffffffffffffffffffffffffffffffffffffffff1673ffffffffffffffffffffffffffffffffffffffff168273ffffffffffffffffffffffffffffffffffffffff16149050919050565b600060148201835110156200024857620002476200023660048551601486016200027360201b620008e51760201c565b620002fa60201b6200096a1760201c565b5b60148201915073ffffffffffffffffffffffffffffffffffffffff8284015116905080905092915050565b6060632800659560e01b848484604051602401620002949392919062000393565b604051602081830303815290604052907bffffffffffffffffffffffffffffffffffffffffffffffffffffffff19166020820180517bffffffffffffffffffffffffffffffffffffffffffffffffffffffff838183161783525050505090509392505050565b805160208201fd5b600081519050620003138162000459565b92915050565b6000815190506200032a8162000473565b92915050565b600080604083850312156200034457600080fd5b6000620003548582860162000319565b9250506020620003678582860162000302565b9150509250929050565b6200037c8162000437565b82525050565b6200038d816200042d565b82525050565b6000606082019050620003aa600083018662000371565b620003b9602083018562000382565b620003c8604083018462000382565b949350505050565b6000620003dd826200040d565b9050919050565b6000620003f182620003d0565b9050919050565b600081905062000408826200044b565b919050565b600073ffffffffffffffffffffffffffffffffffffffff82169050919050565b6000819050919050565b60006200044482620003f8565b9050919050565b600881106200045657fe5b50565b6200046481620003d0565b81146200047057600080fd5b50565b6200047e81620003e4565b81146200048a57600080fd5b50565b610ee3806200049d6000396000f3fe608060405234801561001057600080fd5b506004361061009e5760003560e01c8063688c5ab311610066578063688c5ab31461015b5780638b25321a1461018b578063c4076876146101bb578063ce1b815f146101eb578063e73496cd146102095761009e565b806314d100f5146100a35780632058ad6b146100d3578063486ff0cd146100f1578063572b6c051461010f578063582388501461013f575b600080fd5b6100bd60048036036100b891908101906109c6565b610239565b6040516100ca9190610c88565b60405180910390f35b6100db61038f565b6040516100e89190610d1c565b60405180910390f35b6100f9610441565b6040516101069190610cda565b60405180910390f35b610129600480360361012491908101906109c6565b61047e565b6040516101369190610c6d565b60405180910390f35b61015960048036036101549190810190610aa6565b6104d7565b005b610175600480360361017091908101906109c6565b6105b9565b6040516101829190610d1c565b60405180910390f35b6101a560048036036101a09190810190610a54565b61066f565b6040516101b29190610c00565b60405180910390f35b6101d560048036036101d091908101906109ef565b6106ab565b6040516101e29190610d1c565b60405180910390f35b6101f361070c565b6040516102009190610c00565b60405180910390f35b610223600480360361021e9190810190610a54565b610735565b6040516102309190610c88565b60405180910390f35b600042610244610756565b604051602001610255929190610bd4565b604051602081830303815290604052805190602001209050816007600061027a610756565b73ffffffffffffffffffffffffffffffffffffffff1673ffffffffffffffffffffffffffffffffffffffff16815260200190815260200160002060010160006101000a81548173ffffffffffffffffffffffffffffffffffffffff021916908373ffffffffffffffffffffffffffffffffffffffff1602179055508060086000838152602001908152602001600020600001819055508173ffffffffffffffffffffffffffffffffffffffff167ff9486edd3033dc6962ab55bbbaed881bb5196a443386f32c4d710b03ea419cbf826040516103569190610c88565b60405180910390a26005819080600181540180825580915050600190039060005260206000200160009091909190915055809050919050565b6000600160009054906101000a900473ffffffffffffffffffffffffffffffffffffffff1673ffffffffffffffffffffffffffffffffffffffff166370a08231306040518263ffffffff1660e01b81526004016103ec9190610c00565b60206040518083038186803b15801561040457600080fd5b505afa158015610418573d6000803e3d6000fd5b505050506040513d601f19601f8201168201806040525061043c9190810190610a7d565b905090565b60606040518060400160405280600381526020017f312e300000000000000000000000000000000000000000000000000000000000815250905090565b60008060009054906101000a900473ffffffffffffffffffffffffffffffffffffffff1673ffffffffffffffffffffffffffffffffffffffff168273ffffffffffffffffffffffffffffffffffffffff16149050919050565b600260009054906101000a900473ffffffffffffffffffffffffffffffffffffffff1673ffffffffffffffffffffffffffffffffffffffff16610518610756565b73ffffffffffffffffffffffffffffffffffffffff161461056e576040517f08c379a000000000000000000000000000000000000000000000000000000000815260040161056590610cfc565b60405180910390fd5b81600960008373ffffffffffffffffffffffffffffffffffffffff1673ffffffffffffffffffffffffffffffffffffffff168152602001908152602001600020600201819055505050565b6000600160009054906101000a900473ffffffffffffffffffffffffffffffffffffffff1673ffffffffffffffffffffffffffffffffffffffff1663dd62ed3e83306040518363ffffffff1660e01b8152600401610618929190610c1b565b60206040518083038186803b15801561063057600080fd5b505afa158015610644573d6000803e3d6000fd5b505050506040513d601f19601f820116820180604052506106689190810190610a7d565b9050919050565b6004818154811061067c57fe5b906000526020600020016000915054906101000a900473ffffffffffffffffffffffffffffffffffffffff1681565b60006106b783836107db565b508273ffffffffffffffffffffffffffffffffffffffff167f6c17c54911fedc39201d062e095068babd3e155c8bb8e22ceaac19250b745d80836040516106fe9190610d1c565b60405180910390a292915050565b60008060009054906101000a900473ffffffffffffffffffffffffffffffffffffffff16905090565b6005818154811061074257fe5b906000526020600020016000915090505481565b6000601860003690501015801561077257506107713361047e565b5b156107d4576107cd6000368080601f016020809104026020016040519081016040528093929190818152602001838380828437600081840152601f19601f820116905080830192505050505050506014600036905003610893565b90506107d8565b3390505b90565b6000600160009054906101000a900473ffffffffffffffffffffffffffffffffffffffff1673ffffffffffffffffffffffffffffffffffffffff1663a9059cbb84846040518363ffffffff1660e01b815260040161083a929190610c44565b602060405180830381600087803b15801561085457600080fd5b505af1158015610868573d6000803e3d6000fd5b505050506040513d601f19601f8201168201806040525061088c9190810190610a2b565b5092915050565b600060148201835110156108ba576108b96108b460048551601486016108e5565b61096a565b5b60148201915073ffffffffffffffffffffffffffffffffffffffff8284015116905080905092915050565b6060632800659560e01b84848460405160240161090493929190610ca3565b604051602081830303815290604052907bffffffffffffffffffffffffffffffffffffffffffffffffffffffff19166020820180517bffffffffffffffffffffffffffffffffffffffffffffffffffffffff838183161783525050505090509392505050565b805160208201fd5b60008135905061098181610e68565b92915050565b60008151905061099681610e7f565b92915050565b6000813590506109ab81610e96565b92915050565b6000815190506109c081610e96565b92915050565b6000602082840312156109d857600080fd5b60006109e684828501610972565b91505092915050565b60008060408385031215610a0257600080fd5b6000610a1085828601610972565b9250506020610a218582860161099c565b9150509250929050565b600060208284031215610a3d57600080fd5b6000610a4b84828501610987565b91505092915050565b600060208284031215610a6657600080fd5b6000610a748482850161099c565b91505092915050565b600060208284031215610a8f57600080fd5b6000610a9d848285016109b1565b91505092915050565b60008060408385031215610ab957600080fd5b6000610ac78582860161099c565b9250506020610ad885828601610972565b9150509250929050565b610af3610aee82610d65565b610e0f565b82525050565b610b0281610d53565b82525050565b610b1181610d77565b82525050565b610b2081610d83565b82525050565b610b2f81610dca565b82525050565b6000610b4082610d37565b610b4a8185610d42565b9350610b5a818560208601610ddc565b610b6381610e3d565b840191505092915050565b6000610b7b601583610d42565b91507f796f7520617265206e6f7420746865206f776e657200000000000000000000006000830152602082019050919050565b610bb781610dc0565b82525050565b610bce610bc982610dc0565b610e33565b82525050565b6000610be08285610bbd565b602082019150610bf08284610ae2565b6014820191508190509392505050565b6000602082019050610c156000830184610af9565b92915050565b6000604082019050610c306000830185610af9565b610c3d6020830184610af9565b9392505050565b6000604082019050610c596000830185610af9565b610c666020830184610bae565b9392505050565b6000602082019050610c826000830184610b08565b92915050565b6000602082019050610c9d6000830184610b17565b92915050565b6000606082019050610cb86000830186610b26565b610cc56020830185610bae565b610cd26040830184610bae565b949350505050565b60006020820190508181036000830152610cf48184610b35565b905092915050565b60006020820190508181036000830152610d1581610b6e565b9050919050565b6000602082019050610d316000830184610bae565b92915050565b600081519050919050565b600082825260208201905092915050565b6000610d5e82610da0565b9050919050565b6000610d7082610da0565b9050919050565b60008115159050919050565b6000819050919050565b6000819050610d9b82610e5b565b919050565b600073ffffffffffffffffffffffffffffffffffffffff82169050919050565b6000819050919050565b6000610dd582610d8d565b9050919050565b60005b83811015610dfa578082015181840152602081019050610ddf565b83811115610e09576000848401525b50505050565b6000610e1a82610e21565b9050919050565b6000610e2c82610e4e565b9050919050565b6000819050919050565b6000601f19601f8301169050919050565b60008160601b9050919050565b60088110610e6557fe5b50565b610e7181610d53565b8114610e7c57600080fd5b50565b610e8881610d77565b8114610e9357600080fd5b50565b610e9f81610dc0565b8114610eaa57600080fd5b5056fea264697066735822122095416cc926aa556819765494c06268df261eb23abb44537b1ae42155863d854264736f6c63430006020033",
  "source": "// SPDX-License-Identifier: MIT OR Apache-2.0\npragma solidity ^0.6.2;\n\npragma experimental ABIEncoderV2;\n//import \"../node_modules/@openzeppelin/contracts/token/ERC20/ERC20.sol\";\nimport \"../node_modules/@openzeppelin/contracts/token/ERC20/IERC20.sol\";\nimport \"../node_modules/@opengsn/gsn/contracts/BaseRelayRecipient.sol\";\nimport \"../node_modules/@opengsn/gsn/contracts/interfaces/IKnowForwarderAddress.sol\";\n\ncontract TrackRewarder is IKnowForwarderAddress,BaseRelayRecipient{\n\n\nIERC20 private _token;\n    address owner;\n    uint _bal;\n\nevent trackAdded(address indexed uploader,bytes32 songMeta);\nevent payed(address indexed beneficiary, uint256 amountPayed);\n\nconstructor (IERC20 token,address _forwarder) public {\n    owner = _msgSender();\n    _token = token;\n   trustedForwarder = _forwarder;\n}\n\n\nstruct track{\nbytes32 metadata;\naddress owner;\nuint timeUploaded;\n}\n\nmodifier onlyOwner{\n    require(_msgSender() == owner, \"you are not the owner\");\n        _;\n}\n//uint streams;  Taken care of in the backend\n//ERC20 public tokenInterface;\n\n\nstruct Uploader{\n    uint id;\n    address _add;\n    uint256 _votes;\n}\n\naddress[] public uploaders;\nbytes32[] public metadatas;\n\n//mapping(uint=>Uploader) tokenBalance;\nmapping(address=>Uploader) Uploaders;\nmapping(address=>track) trackOwners;\nmapping(bytes32=>track) TrackMetas;\nmapping(address=>Uploader) voteCount;\n\n\n\n//function addUploader(address _userAdd) public isOwner returns(address){\n  //  Uploaders[_msgSe(nder()]._add=_userAdd;\n    \n//    uploaders.push(_msgSender());\n //   return _userAdd;\n    \n//}\n\nfunction addTrack(address uploader) public returns(bytes32 meta){\n    meta = (keccak256 (abi.encodePacked (now ,_msgSender())));\n    trackOwners[_msgSender()].owner = uploader;\n    TrackMetas[meta].metadata = meta;\n    emit trackAdded (uploader,meta); \n    metadatas.push(meta);\n    return(meta);\n   \n}\n    \n    function redeem(address _artist,uint _amount) internal returns(bool){\n        _token.transfer(_artist,_amount);\n        \n        \n    }\n    \n    function checkBal() public view returns(uint){\n        \n        return _token.balanceOf(address(this));\n    }\n    \n    function remAllowance(address tokenOwner) public view returns(uint256){\n      return  _token.allowance(tokenOwner,address(this));\n    }\n    \n    function pay(address _to,uint amount) external returns(uint) {\n        redeem(_to,amount);\n        emit payed(_to,amount);\n    }\n    \n    function uploadVoteResult(uint votes,address _address) public onlyOwner {\n    voteCount[_address]._votes = votes;\n        \n    }\n\n  \tfunction versionRecipient() external virtual view override returns (string memory) {\n\t\treturn \"1.0\";\n\t}\n\n    function getTrustedForwarder() public view override returns(address) {\n\t\treturn trustedForwarder;\n\t}\n    \n}\n\n\n\n",
  "sourcePath": "/home/null/Desktop/Alto 2/contracts/alto.sol",
  "compiler": {
    "name": "solc",
    "version": "0.6.2+commit.bacdbe57.Emscripten.clang"
  },
  "schemaVersion": "3.2.0",
  "updatedAt": "2020-07-04T01:17:05.863Z",
  "networkType": "ethereum",
  "devdoc": {
    "methods": {}
  },
  "userdoc": {
    "methods": {}
  }
}