{
  "contractName": "TrackRewarder",
  "abi": [
    {
      "inputs": [
        {
          "internalType": "contract IERC20",
          "name": "token",
          "type": "address"
        },
        {
          "internalType": "address",
          "name": "_forwarder",
          "type": "address"
        }
      ],
      "stateMutability": "nonpayable",
      "type": "constructor"
    },
    {
      "anonymous": false,
      "inputs": [
        {
          "indexed": true,
          "internalType": "address",
          "name": "beneficiary",
          "type": "address"
        },
        {
          "indexed": false,
          "internalType": "uint256",
          "name": "amountPayed",
          "type": "uint256"
        }
      ],
      "name": "payed",
      "type": "event"
    },
    {
      "anonymous": false,
      "inputs": [
        {
          "indexed": true,
          "internalType": "address",
          "name": "uploader",
          "type": "address"
        },
        {
          "indexed": false,
          "internalType": "bytes32",
          "name": "songMeta",
          "type": "bytes32"
        },
        {
          "indexed": false,
          "internalType": "uint256",
          "name": "now",
          "type": "uint256"
        }
      ],
      "name": "trackAdded",
      "type": "event"
    },
    {
      "inputs": [
        {
          "internalType": "address",
          "name": "forwarder",
          "type": "address"
        }
      ],
      "name": "isTrustedForwarder",
      "outputs": [
        {
          "internalType": "bool",
          "name": "",
          "type": "bool"
        }
      ],
      "stateMutability": "view",
      "type": "function",
      "constant": true
    },
    {
      "inputs": [
        {
          "internalType": "uint256",
          "name": "",
          "type": "uint256"
        }
      ],
      "name": "metadatas",
      "outputs": [
        {
          "internalType": "bytes32",
          "name": "",
          "type": "bytes32"
        }
      ],
      "stateMutability": "view",
      "type": "function",
      "constant": true
    },
    {
      "inputs": [
        {
          "internalType": "uint256",
          "name": "",
          "type": "uint256"
        }
      ],
      "name": "uploaders",
      "outputs": [
        {
          "internalType": "address",
          "name": "",
          "type": "address"
        }
      ],
      "stateMutability": "view",
      "type": "function",
      "constant": true
    },
    {
      "inputs": [
        {
          "internalType": "address",
          "name": "uploader",
          "type": "address"
        }
      ],
      "name": "addTrack",
      "outputs": [
        {
          "internalType": "bytes32",
          "name": "meta",
          "type": "bytes32"
        }
      ],
      "stateMutability": "nonpayable",
      "type": "function"
    },
    {
      "inputs": [],
      "name": "checkBal",
      "outputs": [
        {
          "internalType": "uint256",
          "name": "",
          "type": "uint256"
        }
      ],
      "stateMutability": "view",
      "type": "function",
      "constant": true
    },
    {
      "inputs": [
        {
          "internalType": "address",
          "name": "tokenOwner",
          "type": "address"
        }
      ],
      "name": "remAllowance",
      "outputs": [
        {
          "internalType": "uint256",
          "name": "",
          "type": "uint256"
        }
      ],
      "stateMutability": "view",
      "type": "function",
      "constant": true
    },
    {
      "inputs": [
        {
          "internalType": "address",
          "name": "_to",
          "type": "address"
        },
        {
          "internalType": "uint256",
          "name": "amount",
          "type": "uint256"
        }
      ],
      "name": "pay",
      "outputs": [
        {
          "internalType": "uint256",
          "name": "",
          "type": "uint256"
        }
      ],
      "stateMutability": "nonpayable",
      "type": "function"
    },
    {
      "inputs": [
        {
          "internalType": "uint256",
          "name": "votes",
          "type": "uint256"
        },
        {
          "internalType": "address",
          "name": "_address",
          "type": "address"
        }
      ],
      "name": "uploadVoteResult",
      "outputs": [],
      "stateMutability": "nonpayable",
      "type": "function"
    },
    {
      "inputs": [],
      "name": "versionRecipient",
      "outputs": [
        {
          "internalType": "string",
          "name": "",
          "type": "string"
        }
      ],
      "stateMutability": "view",
      "type": "function",
      "constant": true
    },
    {
      "inputs": [],
      "name": "getTrustedForwarder",
      "outputs": [
        {
          "internalType": "address",
          "name": "",
          "type": "address"
        }
      ],
      "stateMutability": "view",
      "type": "function",
      "constant": true
    }
  ],
  "bytecode": "0x60806040523480156200001157600080fd5b50604051620013ab380380620013ab833981810160405262000037919081019062000330565b620000476200011060201b60201c565b600260006101000a81548173ffffffffffffffffffffffffffffffffffffffff021916908373ffffffffffffffffffffffffffffffffffffffff16021790555081600160006101000a81548173ffffffffffffffffffffffffffffffffffffffff021916908373ffffffffffffffffffffffffffffffffffffffff160217905550806000806101000a81548173ffffffffffffffffffffffffffffffffffffffff021916908373ffffffffffffffffffffffffffffffffffffffff16021790555050506200048d565b600060186000369050101580156200013557506200013433620001ad60201b60201c565b5b15620001a6576200019e6000368080601f016020809104026020016040519081016040528093929190818152602001838380828437600081840152601f19601f8201169050808301925050505050505060146000369050036200020660201b620008951760201c565b9050620001aa565b3390505b90565b60008060009054906101000a900473ffffffffffffffffffffffffffffffffffffffff1673ffffffffffffffffffffffffffffffffffffffff168273ffffffffffffffffffffffffffffffffffffffff16149050919050565b600060148201835110156200024857620002476200023660048551601486016200027360201b620008e71760201c565b620002fa60201b6200096c1760201c565b5b60148201915073ffffffffffffffffffffffffffffffffffffffff8284015116905080905092915050565b6060632800659560e01b848484604051602401620002949392919062000393565b604051602081830303815290604052907bffffffffffffffffffffffffffffffffffffffffffffffffffffffff19166020820180517bffffffffffffffffffffffffffffffffffffffffffffffffffffffff838183161783525050505090509392505050565b805160208201fd5b600081519050620003138162000459565b92915050565b6000815190506200032a8162000473565b92915050565b600080604083850312156200034457600080fd5b6000620003548582860162000319565b9250506020620003678582860162000302565b9150509250929050565b6200037c8162000437565b82525050565b6200038d816200042d565b82525050565b6000606082019050620003aa600083018662000371565b620003b9602083018562000382565b620003c8604083018462000382565b949350505050565b6000620003dd826200040d565b9050919050565b6000620003f182620003d0565b9050919050565b600081905062000408826200044b565b919050565b600073ffffffffffffffffffffffffffffffffffffffff82169050919050565b6000819050919050565b60006200044482620003f8565b9050919050565b600881106200045657fe5b50565b6200046481620003d0565b81146200047057600080fd5b50565b6200047e81620003e4565b81146200048a57600080fd5b50565b610f0e806200049d6000396000f3fe608060405234801561001057600080fd5b506004361061009e5760003560e01c8063688c5ab311610066578063688c5ab31461015b5780638b25321a1461018b578063c4076876146101bb578063ce1b815f146101eb578063e73496cd146102095761009e565b806314d100f5146100a35780632058ad6b146100d3578063486ff0cd146100f1578063572b6c051461010f578063582388501461013f575b600080fd5b6100bd60048036036100b891908101906109c8565b610239565b6040516100ca9190610c8a565b60405180910390f35b6100db610391565b6040516100e89190610d47565b60405180910390f35b6100f9610443565b6040516101069190610d05565b60405180910390f35b610129600480360361012491908101906109c8565b610480565b6040516101369190610c6f565b60405180910390f35b61015960048036036101549190810190610aa8565b6104d9565b005b610175600480360361017091908101906109c8565b6105bb565b6040516101829190610d47565b60405180910390f35b6101a560048036036101a09190810190610a56565b610671565b6040516101b29190610c02565b60405180910390f35b6101d560048036036101d091908101906109f1565b6106ad565b6040516101e29190610d47565b60405180910390f35b6101f361070e565b6040516102009190610c02565b60405180910390f35b610223600480360361021e9190810190610a56565b610737565b6040516102309190610c8a565b60405180910390f35b600042610244610758565b604051602001610255929190610bd6565b604051602081830303815290604052805190602001209050816007600061027a610758565b73ffffffffffffffffffffffffffffffffffffffff1673ffffffffffffffffffffffffffffffffffffffff16815260200190815260200160002060010160006101000a81548173ffffffffffffffffffffffffffffffffffffffff021916908373ffffffffffffffffffffffffffffffffffffffff1602179055508060086000838152602001908152602001600020600001819055508173ffffffffffffffffffffffffffffffffffffffff167fce6281af871eb1a16dead7916eeb865bf4d1c3c23f0b7ef1defc9b643cf265158242604051610358929190610ca5565b60405180910390a26005819080600181540180825580915050600190039060005260206000200160009091909190915055809050919050565b6000600160009054906101000a900473ffffffffffffffffffffffffffffffffffffffff1673ffffffffffffffffffffffffffffffffffffffff166370a08231306040518263ffffffff1660e01b81526004016103ee9190610c02565b60206040518083038186803b15801561040657600080fd5b505afa15801561041a573d6000803e3d6000fd5b505050506040513d601f19601f8201168201806040525061043e9190810190610a7f565b905090565b60606040518060400160405280600381526020017f312e300000000000000000000000000000000000000000000000000000000000815250905090565b60008060009054906101000a900473ffffffffffffffffffffffffffffffffffffffff1673ffffffffffffffffffffffffffffffffffffffff168273ffffffffffffffffffffffffffffffffffffffff16149050919050565b600260009054906101000a900473ffffffffffffffffffffffffffffffffffffffff1673ffffffffffffffffffffffffffffffffffffffff1661051a610758565b73ffffffffffffffffffffffffffffffffffffffff1614610570576040517f08c379a000000000000000000000000000000000000000000000000000000000815260040161056790610d27565b60405180910390fd5b81600960008373ffffffffffffffffffffffffffffffffffffffff1673ffffffffffffffffffffffffffffffffffffffff168152602001908152602001600020600201819055505050565b6000600160009054906101000a900473ffffffffffffffffffffffffffffffffffffffff1673ffffffffffffffffffffffffffffffffffffffff1663dd62ed3e83306040518363ffffffff1660e01b815260040161061a929190610c1d565b60206040518083038186803b15801561063257600080fd5b505afa158015610646573d6000803e3d6000fd5b505050506040513d601f19601f8201168201806040525061066a9190810190610a7f565b9050919050565b6004818154811061067e57fe5b906000526020600020016000915054906101000a900473ffffffffffffffffffffffffffffffffffffffff1681565b60006106b983836107dd565b508273ffffffffffffffffffffffffffffffffffffffff167f6c17c54911fedc39201d062e095068babd3e155c8bb8e22ceaac19250b745d80836040516107009190610d47565b60405180910390a292915050565b60008060009054906101000a900473ffffffffffffffffffffffffffffffffffffffff16905090565b6005818154811061074457fe5b906000526020600020016000915090505481565b60006018600036905010158015610774575061077333610480565b5b156107d6576107cf6000368080601f016020809104026020016040519081016040528093929190818152602001838380828437600081840152601f19601f820116905080830192505050505050506014600036905003610895565b90506107da565b3390505b90565b6000600160009054906101000a900473ffffffffffffffffffffffffffffffffffffffff1673ffffffffffffffffffffffffffffffffffffffff1663a9059cbb84846040518363ffffffff1660e01b815260040161083c929190610c46565b602060405180830381600087803b15801561085657600080fd5b505af115801561086a573d6000803e3d6000fd5b505050506040513d601f19601f8201168201806040525061088e9190810190610a2d565b5092915050565b600060148201835110156108bc576108bb6108b660048551601486016108e7565b61096c565b5b60148201915073ffffffffffffffffffffffffffffffffffffffff8284015116905080905092915050565b6060632800659560e01b84848460405160240161090693929190610cce565b604051602081830303815290604052907bffffffffffffffffffffffffffffffffffffffffffffffffffffffff19166020820180517bffffffffffffffffffffffffffffffffffffffffffffffffffffffff838183161783525050505090509392505050565b805160208201fd5b60008135905061098381610e93565b92915050565b60008151905061099881610eaa565b92915050565b6000813590506109ad81610ec1565b92915050565b6000815190506109c281610ec1565b92915050565b6000602082840312156109da57600080fd5b60006109e884828501610974565b91505092915050565b60008060408385031215610a0457600080fd5b6000610a1285828601610974565b9250506020610a238582860161099e565b9150509250929050565b600060208284031215610a3f57600080fd5b6000610a4d84828501610989565b91505092915050565b600060208284031215610a6857600080fd5b6000610a768482850161099e565b91505092915050565b600060208284031215610a9157600080fd5b6000610a9f848285016109b3565b91505092915050565b60008060408385031215610abb57600080fd5b6000610ac98582860161099e565b9250506020610ada85828601610974565b9150509250929050565b610af5610af082610d90565b610e3a565b82525050565b610b0481610d7e565b82525050565b610b1381610da2565b82525050565b610b2281610dae565b82525050565b610b3181610df5565b82525050565b6000610b4282610d62565b610b4c8185610d6d565b9350610b5c818560208601610e07565b610b6581610e68565b840191505092915050565b6000610b7d601583610d6d565b91507f796f7520617265206e6f7420746865206f776e657200000000000000000000006000830152602082019050919050565b610bb981610deb565b82525050565b610bd0610bcb82610deb565b610e5e565b82525050565b6000610be28285610bbf565b602082019150610bf28284610ae4565b6014820191508190509392505050565b6000602082019050610c176000830184610afb565b92915050565b6000604082019050610c326000830185610afb565b610c3f6020830184610afb565b9392505050565b6000604082019050610c5b6000830185610afb565b610c686020830184610bb0565b9392505050565b6000602082019050610c846000830184610b0a565b92915050565b6000602082019050610c9f6000830184610b19565b92915050565b6000604082019050610cba6000830185610b19565b610cc76020830184610bb0565b9392505050565b6000606082019050610ce36000830186610b28565b610cf06020830185610bb0565b610cfd6040830184610bb0565b949350505050565b60006020820190508181036000830152610d1f8184610b37565b905092915050565b60006020820190508181036000830152610d4081610b70565b9050919050565b6000602082019050610d5c6000830184610bb0565b92915050565b600081519050919050565b600082825260208201905092915050565b6000610d8982610dcb565b9050919050565b6000610d9b82610dcb565b9050919050565b60008115159050919050565b6000819050919050565b6000819050610dc682610e86565b919050565b600073ffffffffffffffffffffffffffffffffffffffff82169050919050565b6000819050919050565b6000610e0082610db8565b9050919050565b60005b83811015610e25578082015181840152602081019050610e0a565b83811115610e34576000848401525b50505050565b6000610e4582610e4c565b9050919050565b6000610e5782610e79565b9050919050565b6000819050919050565b6000601f19601f8301169050919050565b60008160601b9050919050565b60088110610e9057fe5b50565b610e9c81610d7e565b8114610ea757600080fd5b50565b610eb381610da2565b8114610ebe57600080fd5b50565b610eca81610deb565b8114610ed557600080fd5b5056fea264697066735822122066ce9c33c795609294a01167be441f2ca80795741a005b869012cd1a12b4f02964736f6c63430006020033",
  "source": "// SPDX-License-Identifier: MIT OR Apache-2.0\npragma solidity ^0.6.2;\n\npragma experimental ABIEncoderV2;\n//import \"../node_modules/@openzeppelin/contracts/token/ERC20/ERC20.sol\";\nimport \"../node_modules/@openzeppelin/contracts/token/ERC20/IERC20.sol\";\nimport \"../node_modules/@opengsn/gsn/contracts/BaseRelayRecipient.sol\";\nimport \"../node_modules/@opengsn/gsn/contracts/interfaces/IKnowForwarderAddress.sol\";\n\ncontract TrackRewarder is IKnowForwarderAddress,BaseRelayRecipient{\n\n\nIERC20 private _token;\n    address owner;\n    uint _bal;\n\nevent trackAdded(address indexed uploader,bytes32 songMeta,uint now);\nevent payed(address indexed beneficiary, uint256 amountPayed);\n\nconstructor (IERC20 token,address _forwarder) public {\n    owner = _msgSender();\n    _token = token;\n   trustedForwarder = _forwarder;\n}\n\n\nstruct track{\nbytes32 metadata;\naddress owner;\nuint timeUploaded;\n}\n\nmodifier onlyOwner{\n    require(_msgSender() == owner, \"you are not the owner\");\n        _;\n}\n//uint streams;  Taken care of in the backend\n//ERC20 public tokenInterface;\n\n\nstruct Uploader{\n    uint id;\n    address _add;\n    uint256 _votes;\n}\n\naddress[] public uploaders;\nbytes32[] public metadatas;\n\n//mapping(uint=>Uploader) tokenBalance;\nmapping(address=>Uploader) Uploaders;\nmapping(address=>track) trackOwners;\nmapping(bytes32=>track) TrackMetas;\nmapping(address=>Uploader) voteCount;\n\n\n\n//function addUploader(address _userAdd) public isOwner returns(address){\n  //  Uploaders[_msgSe(nder()]._add=_userAdd;\n    \n//    uploaders.push(_msgSender());\n //   return _userAdd;\n    \n//}\n\nfunction addTrack(address uploader) public returns(bytes32 meta){\n    meta = (keccak256 (abi.encodePacked (now ,_msgSender())));\n    trackOwners[_msgSender()].owner = uploader;\n    TrackMetas[meta].metadata = meta;\n    emit trackAdded (uploader,meta,now);\n    metadatas.push(meta);\n    return(meta);\n   \n}\n    \n    function redeem(address _artist,uint _amount) internal returns(bool){\n        _token.transfer(_artist,_amount);\n        \n        \n    }\n    \n    function checkBal() public view returns(uint){\n        \n        return _token.balanceOf(address(this));\n    }\n    \n    function remAllowance(address tokenOwner) public view returns(uint256){\n      return  _token.allowance(tokenOwner,address(this));\n    }\n    \n    function pay(address _to,uint amount) external returns(uint) {\n        redeem(_to,amount);\n        emit payed(_to,amount);\n    }\n    \n    function uploadVoteResult(uint votes,address _address) public onlyOwner {\n    voteCount[_address]._votes = votes;\n        \n    }\n\n  \tfunction versionRecipient() external virtual view override returns (string memory) {\n\t\treturn \"1.0\";\n\t}\n\n    function getTrustedForwarder() public view override returns(address) {\n\t\treturn trustedForwarder;\n\t}\n    \n}\n\n\n\n",
  "sourcePath": "/home/null/Desktop/Alto 2/contracts/alto.sol",
  "compiler": {
    "name": "solc",
    "version": "0.6.2+commit.bacdbe57.Emscripten.clang"
  },
  "schemaVersion": "3.0.23",
  "updatedAt": "2020-07-08T20:49:23.216Z",
  "networkType": "ethereum",
  "devdoc": {
    "methods": {}
  },
  "userdoc": {
    "methods": {}
  }
}